:1000000012C036C02BC02AC029C028C027C026C0B5
:1000100025C024C023C022C021C020C01FC01EC0D4
:100020001DC01CC01BC011241FBECFE5D4E0DEBF25
:10003000CDBF10E0A0E6B0E0EAEDF4E002C005902C
:100040000D92A43EB107D9F711E0A4EEB0E001C0D3
:100050001D92A530B107E1F73BD03DC2D1CF80E47E
:100060008BBF88E085BF089580E48BBF15BE0895DF
:100070001F920F920FB60F9211242F933F934F931D
:100080005F936F937F938F939F93AF93BF93EF9300
:10009000FF93F89480916800813021F4E5DF10929D
:1000A000680005C0DCDF81E0809368007894FF91F0
:1000B000EF91BF91AF919F918F917F916F915F91E0
:1000C0004F913F912F910F900FBE0F901F90189559
:1000D0000F931F93CF93DF933BD0A09AA89ADBD0C6
:1000E00080E0A9D1A7D011BA84E082BBB8DF85B780
:1000F000806885BF11E0AFD0C0E6D0E00991802FC5
:100100009AD100936600A7D080EB64E670E044E0EB
:100110009AD190D08BE792E90197F1F700C00000E7
:1001200085B3812785BB90E0C436D90739F7809124
:100130006800882301F7A8988FE794E8AEE1815022
:100140009040A040E1F700C0000078948895D3CF9C
:1001500018BA8CE287BB80E58DB91EB81EB8089529
:100160008FB9779BFECF8FB10895DF93CF930F9216
:10017000CDB7DEB7C2986983F3DF8093040169814C
:10018000862FEEDFC29A0F90CF91DF910895C2982B
:10019000E7DF8093040180E0E3DFC29A0895EF92E5
:1001A000FF920F931F93DF93CF930F92CDB7DEB7DC
:1001B000162F042FC2987983D3DF7981412F572FCF
:1001C0007A0105C080E0CCDFF70181937F018E2D9D
:1001D000811B8017B8F3C29A0F90CF91DF911F91C6
:1001E0000F91FF90EF900895EF92FF920F931F935E
:1001F000DF93CF930F92CDB7DEB7162F042FC2989F
:100200007983AEDF809304017981412F572F7A01E2
:1002100004C0F70181917F01A3DF8E2D811B801720
:10022000C0F3C29A0F90CF91DF911F910F91FF9071
:10023000EF90089582EE60E098DF87E0A8DF682FF6
:1002400087E293DFC19880E0A2DF682F616080E2DF
:100250008CDFC19A089581EE60E087DFC19880E06D
:1002600096DF682F6E7F80E280DFC19A08951F932A
:10027000182F87E08CDF87FF03C0112319F005C01A
:10028000112319F080E563E570DF1F910895682F51
:1002900085E26BDF0895CF92DF92EF92FF920F938A
:1002A0001F93DF93CF93CDB7DEB72D970FB6F8949A
:1002B000DEBF0FBECDBF8FE493EC0197F1F700C016
:1002C000000080E0D4DF0CEA10E0F8018081806259
:1002D00061814BDF0E5F1F4FF0E0043D1F07A9F760
:1002E00034E3C32EC98223E4D22EDA8290E1E92ED0
:1002F000EB82EC82FF24F394FD828AE28E010F5F91
:100300001F4FB80145E070DF89E3898388E38A8362
:1003100087E38B8386E38C8382EC8D838BE2B80149
:1003200045E062DFC982DA82EB82EC82FD8280E303
:10033000B80145E059DF8DE12ADF882319F480E513
:1003400063E713DF8DE367E010DF8CE36FE30DDF1E
:1003500081E08DDF09E610E090E07E010894E11C69
:10036000F11CF80121913191419151918F01298323
:100370003A834B835C83892F8062B70144E09D8779
:1003800033DF9D859F5F993061F78DE8E82E80E02F
:10039000F82E8E010F5F1F4FF7012191319141918E
:1003A00051917F0159834A833B832C83892F80623B
:1003B000B80144E09D8718DF9D859F5F9E3061F7FF
:1003C000E1EAF0E0D80181918D9380E0EC3AF80702
:1003D000D1F78EE28E010F5F1F4FB8014BE004DFB3
:1003E00086E98A8382E88B838BE18C838FED898316
:1003F00084E2B80144E0F8DE8981897F898384E260
:10040000B80144E0F1DEE3EDF0E33197F1F700C02D
:10041000000080E02CDF0EDF2D960FB6F894DEBFD3
:100420000FBECDBFCF91DF911F910F91FF90EF9045
:10043000DF90CF900895682F660F696F677286E22C
:1004400094DEF8DE0895EF92FF921F93DF93CF932F
:100450000F92CDB7DEB7182F7B014983FCDE87E111
:1004600096DE498185FD09C0812FB701BDDE87EA8F
:1004700091E60197F1F700C0000080E00F90CF9166
:10048000DF911F91FF90EF9008950F931F93CF93EB
:10049000DF93EC0187E07BDE082F86FF12C080E649
:1004A00076DE182F813228F481E6BE01412F77DEF7
:1004B00003C082EE60E059DE87E169DE80FFEFCFA6
:1004C00001C010E087E2602F50DE812FDF91CF91D5
:0A04D0001F910F910895F894FFCFDB
:1004DA00000102032A05002A01404B01E2C04B0039
:1004EA0000D0FC8C0299003941D996821B24027FE4
:1004FA00A60000000000000000000000000000004C
:10050A00000000000000000000007312000080B428
:10051A0046412008048120CFF7FEFFFF000F013F6C
:10052A00023F0303040005330627070708000900F2
:10053A000CC30DC40EC50FC611201220132014209F
:10054A001520162017001C3F1D07344310100139CF
:04055A00383736C236
:00000001FF
