:100000000C942A000C9447000C9447000C94470071
:100010000C9447000C9447000C9447000C94470044
:100020000C9447000C9447000C9447000C94470034
:100030000C9447000C9447000C9447000C94470024
:100040000C9447000C9447000C9447000C94470014
:100050000C94470011241FBECFE5D4E0DEBFCDBF16
:1000600010E0A0E6B0E0E8E0F6E002C005900D92F6
:10007000AC3DB107D9F710E0ACEDB0E001C01D9286
:10008000AD3FB107E1F70E9449000C9402030C94C4
:100090000000BF92CF92DF92EF92FF920F931F93D7
:1000A000DF93CF9300D000D000D0CDB7DEB70E9451
:1000B0001B010E94D0010E94940187B3836087BB1B
:1000C00088B3836088BBD09AD89A8FEF84BB15BA67
:1000D0004FE75AE166E0415050406040E1F700C010
:1000E000000080E07E010894E11CF11C24E0C22E97
:1000F00001E010E095E0D92E05C0F701E80FF11DF1
:10010000D0828F5F8630C8F380E6B82E83EC99E00A
:100110000197F1F700C000008CED90E060E20E94D2
:10012000D602882359F08091DE009091DD00F7011E
:10013000E90FF11D9081891708F48083BA9431F793
:10014000C098C198D89815BAF70161E070E0819124
:100150008530D1F12C2D281B633069F0643018F400
:10016000623029F406C0653021F0663021F0C09A73
:1001700003C0D89A01C0C19A643018F480E090E0BE
:1001800011C030E02C5F3F4F84E090E019C035B3E0
:10019000A801082E02C0440F551F0A94E2F7342B21
:1001A00035BB0196821798F30EC0A5B3A801082E9F
:1001B00002C0440F551F0A94E2F7A42BA5BB019679
:1001C0008217930791F77F5F6F5F673009F0BFCFAA
:1001D000772379F580916000982F9F5F909360005E
:1001E000843010F01092600020916000213059F0AE
:1001F000213028F0223029F0233031F404C0C09A95
:1002000003C0C19A01C0D89A45B3822F90E0D801AB
:1002100002C0AA0FBB1F2A95E2F74A2B45BB25B3A4
:100220000496A80102C0440F551F8A95E2F7242BBB
:1002300025BB80E062CF18BA88EB87BB81E58DB91A
:100240001EB808958FB9779BFECF8FB10895DF93C5
:10025000CF930F92CDB7DEB7C49869830E94220175
:100260008093FC006981862F0E942201C49A0F901E
:10027000CF91DF910895C4980E9422018093FC00E1
:1002800080E00E942201C49A0895EF92FF920F939A
:100290001F93DF93CF930F92CDB7DEB7162F042FA6
:1002A000C49879830E9422017981412F572F7A01C6
:1002B00006C080E00E942201F70181937F018E2D0C
:1002C000811B8017B0F3C49A0F90CF91DF911F91DB
:1002D0000F91FF90EF900895EF92FF920F931F936D
:1002E000DF93CF930F92CDB7DEB7162F042FC498AC
:1002F00079830E9422018093FC007981412F572F3E
:100300007A0105C0F70181917F010E9422018E2DA3
:10031000811B8017B8F3C49A0F90CF91DF911F9182
:100320000F91FF90EF90089582EE60E00E94270108
:1003300087E00E943B01682F87E20E942701C39853
:1003400080E00E943B01682F616080E20E942701EB
:10035000C39A089581EE60E00E942701C39880E06F
:100360000E943B01682F6E7F80E20E942701C39AA2
:1003700008951F93182F87E00E943B0187FF03C059
:10038000112319F006C0112321F080E563E50E94D6
:1003900027011F910895682F85E20E942701089583
:1003A000CF92DF92EF92FF920F931F93DF93CF9341
:1003B000CDB7DEB72D970FB6F894DEBF0FBECDBF19
:1003C0008FE493EC0197F1F700C0000080E00E94F9
:1003D000B90104EA10E0F8018081806261810E9425
:1003E00027010E5F1F4FF0E00C3C1F07A1F734E31D
:1003F000C32EC98223E4D22EDA8290E1E92EEB8269
:10040000EC82FF24F394FD828AE28E010F5F1F4F7E
:10041000B80145E00E946C0189E3898388E38A83FF
:1004200087E38B8386E38C8382EC8D838BE2B80138
:1004300045E00E946C01C982DA82EB82EC82FD8287
:1004400080E3B80145E00E946C018DE10E943B0110
:10045000882321F480E563E70E9427018DE367E0AC
:100460000E9427018CE36FE30E94270181E00E9434
:10047000B90101E610E090E07E010894E11CF11C56
:10048000F80121913191419151918F0129833A8352
:100490004B835C83892F8062B70144E09D870E9473
:1004A0006C019D859F5F993059F785E8E82E80E0C3
:1004B000F82E8E010F5F1F4FF7012191319141916D
:1004C00051917F0159834A833B832C83892F80621A
:1004D000B80144E09D870E946C019D859F5F9E301E
:1004E00059F7E9E9F0E0D80181918D9380E0E43A91
:1004F000F807D1F78EE28E010F5F1F4FB8014BE076
:100500000E946C0186E98A8382E88B838BE18C836D
:100510008FED898384E2B80144E00E946C018981F7
:10052000897F898384E2B80144E00E946C01E3ED95
:10053000F0E33197F1F700C0000080E00E94B901BC
:100540000E9494012D960FB6F894DEBF0FBECDBF6A
:10055000CF91DF911F910F91FF90EF90DF90CF909F
:100560000895EF92FF921F93DF93CF930F92CDB731
:10057000DEB7182F7B0149830E94AA0187E10E9400
:100580003B01498185FD0AC0812FB7010E946C01A2
:1005900087EA91E60197F1F700C0000080E00F9034
:1005A000CF91DF911F91FF90EF9008950F931F93CC
:1005B000CF93DF93EC0187E00E943B01082F86FF79
:1005C00016C080E60E943B01182F813230F481E68C
:1005D000BE01412F0E94450104C082EE60E00E94EE
:1005E000270187E10E943B0180FFEBCF01C010E0B3
:1005F00087E2602F0E942701812FDF91CF911F9109
:080600000F910895F894FFCF5B
:1006080004404B01E2C04B0000D0FC8C0299003939
:1006180041D996821B24027FA6000000000000003A
:1006280000000000000000000000000000000000C2
:1006380000007312000080B446412008048120CFD6
:10064800F7FEFFFF000F013F023F030304FF0533DE
:1006580006270707080009000CC30DC40EC50FC6FE
:1006680011201220132014201520162017001C3FDB
:0C0678001D07344310100139383736C21A
:00000001FF
