:100000000C942A000C9447000C9447000C94470071
:100010000C9447000C9447000C9447000C94470044
:100020000C9447000C9447000C9447000C94470034
:100030000C9447000C9447000C9447000C94470024
:100040000C9447000C9447000C9447000C94470014
:100050000C94470011241FBECFE5D4E0DEBFCDBF16
:1000600010E0A0E6B0E0E4EAF5E002C005900D92F1
:10007000AC3DB107D9F710E0ACEDB0E001C01D9286
:10008000AD3FB107E1F70E944E000C94D0020C94F2
:100090000000982F9295907F892B0895EF92FF9200
:1000A0000F931F93DF93CF93CDB7DEB727970FB68C
:1000B000F894DEBF0FBECDBF0E94E9000E949E01F2
:1000C0000E9462018AB3806F8ABB8BB3806F8BBB47
:1000D00084B3806F84BB85B3806F85BB84B38F602E
:1000E00084BB85B38F6085BB8FE79AE1A6E0815022
:1000F0009040A040E1F700C0000080E08E010F5F5B
:100100001F4F24E0F22E95E0E92E05C0F801E80F1C
:10011000F11DE0828F5F8630C8F320E0A3ECB9E0E8
:100120001197F1F700C000008CED90E060E22F83A2
:100130000E94A4022F81882359F08091DE009091C3
:10014000DD00F801E90FF11D9081891708F4808323
:100150002F5F203619F78BB38F708BBB85B38F70F1
:1001600085BB85B3807F85BB8A819981981708F00C
:1001700089838B819C81891710F09A8301C08A83BF
:100180008D819E81891710F09B8301C08B838981AB
:10019000BF2DB81B8B2F9BB32B2F2F608295807F99
:1001A000822B89238BBB8A819F2D981B892F95B326
:1001B000282F2F608295807F822B892385BB8B819E
:1001C000AF2DA81B8A2F95B3806F892385BB80E054
:1001D0009DCF18BA88EB87BB81E58DB91EB808950D
:1001E0008FB9779BFECF8FB10895DF93CF930F9296
:1001F000CDB7DEB7C49869830E94F0008093FC00FD
:100200006981862F0E94F000C49A0F90CF91DF91F0
:100210000895C4980E94F0008093FC0080E00E9442
:10022000F000C49A0895EF92FF920F931F93DF930B
:10023000CF930F92CDB7DEB7162F042FC4987983D2
:100240000E94F0007981412F572F7A0106C080E08B
:100250000E94F000F70181937F018E2D811B801792
:10026000B0F3C49A0F90CF91DF911F910F91FF903F
:10027000EF900895EF92FF920F931F93DF93CF9328
:100280000F92CDB7DEB7162F042FC49879830E9442
:10029000F0008093FC007981412F572F7A0105C02F
:1002A000F70181917F010E94F0008E2D811B801744
:1002B000B8F3C49A0F90CF91DF911F910F91FF90E7
:1002C000EF90089582EE60E00E94F50087E00E94C2
:1002D0000901682F87E20E94F500C39880E00E9420
:1002E0000901682F616080E20E94F500C39A0895B9
:1002F00081EE60E00E94F500C39880E00E94090151
:10030000682F6E7F80E20E94F500C39A08951F93C4
:10031000182F87E00E94090187FF03C0112319F0FD
:1003200006C0112321F080E563E50E94F5001F91CE
:100330000895682F85E20E94F5000895CF92DF921C
:10034000EF92FF920F931F93DF93CF93CDB7DEB75A
:100350002D970FB6F894DEBF0FBECDBF8FE493ECA0
:100360000197F1F700C0000080E00E94870103EAD6
:1003700010E0F8018081806261810E94F5000E5FCB
:100380001F4FF0E00B3C1F07A1F734E3C32EC982D7
:1003900023E4D22EDA8290E1E92EEB82EC82FF2474
:1003A000F394FD828AE28E010F5F1F4FB80145E092
:1003B0000E943A0189E3898388E38A8387E38B83F8
:1003C00086E38C8382EC8D838BE2B80145E00E944A
:1003D0003A01C982DA82EB82EC82FD8280E3B801C5
:1003E00045E00E943A018DE10E940901882321F431
:1003F00080E563E70E94F5008DE367E00E94F50069
:100400008CE36FE30E94F50081E00E94870100E623
:1004100010E090E07E010894E11CF11CF8012191AC
:100420003191419151918F0129833A834B835C83B0
:10043000892F8062B70144E09D870E943A019D8523
:100440009F5F993059F784E8E82E80E0F82E8E01FE
:100450000F5F1F4FF70121913191419151917F0120
:1004600059834A833B832C83892F8062B80144E0FF
:100470009D870E943A019D859F5F9E3059F7E8E96C
:10048000F0E0D80181918D9380E0E33AF807D1F74D
:100490008EE28E010F5F1F4FB8014BE00E943A01C0
:1004A00086E98A8382E88B838BE18C838FED898355
:1004B00084E2B80144E00E943A018981897F8983FE
:1004C00084E2B80144E00E943A01E3EDF0E33197A1
:1004D000F1F700C0000080E00E9487010E946201E5
:1004E0002D960FB6F894DEBF0FBECDBFCF91DF9132
:1004F0001F910F91FF90EF90DF90CF900895EF92B2
:10050000FF921F93DF93CF930F92CDB7DEB7182FD3
:100510007B0149830E94780187E10E94090149819A
:1005200085FD0AC0812FB7010E943A0187EA91E652
:100530000197F1F700C0000080E00F90CF91DF91AC
:100540001F91FF90EF9008950F931F93CF93DF9328
:10055000EC0187E00E940901082F86FF16C080E6A3
:100560000E940901182F813230F481E6BE01412F2B
:100570000E94130104C082EE60E00E94F50087E152
:100580000E94090180FFEBCF01C010E087E2602FDD
:100590000E94F500812FDF91CF911F910F91089557
:0405A000F894FFCFFD
:1005A400404B01E2C04B0000D0FC8C029900394161
:1005B400D996821B24027FA60000000000000000E0
:1005C4000000000000000000000000000000000027
:1005D400007312000080B446412008048120CFF744
:1005E400FEFFFF000F013F023F030304FF05330634
:1005F400270707080009000CC30DC40EC50FC61158
:10060400201220132014201520162017001C3F1D33
:0C06140007344310100139383736C2009B
:00000001FF
